:1000000023C032C031C030C02FC0E3C02DC02CC0CF
:100010002BC02AC029C028C027C026C025C0010285
:100020000000040000000000000000003800000094
:100030000000370002020202020202020202010272
:10004000040810202004100811241FBECFE5D1E0C1
:10005000DEBFCDBF20E0A0E6B0E001C01D92A93612
:10006000B207E1F700D15BC1CBCF90E0FC01E25CCD
:10007000FF4F2491FC01EC5CFF4F8491882399F0A1
:1000800090E0880F991FFC01E25DFF4FA591B491AC
:10009000FC01E85DFF4F859194918FB7F894EC9146
:1000A000E22BEC938FBF089590E0FC01E25EFF4FDE
:1000B0003491FC01E25CFF4F2491FC01EC5CFF4FAA
:1000C000E491EE2339F1332399F0323071F028F4C2
:1000D000313071F48AB58F770AC0333011F0343083
:1000E00039F48CB58F7D8CBD03C08AB58F7D8ABDF8
:1000F000F0E0EE0FFF1FE85DFF4FA591B4918FB7C1
:10010000F894EC91611103C020952E2301C02E2B91
:100110002C938FBF08953FB7F8948091650090911C
:100120006600A0916700B091680022B708B601FE92
:1001300005C02F3F19F00196A11DB11D3FBFBA2F79
:10014000A92F982F8827820F911DA11DB11DBC01D9
:10015000CD0143E0660F771F881F991F4A95D1F79D
:1001600008958F929F92AF92BF92CF92DF92EF92BB
:10017000FF926B017C01CFDF4B015C01C114D10404
:10018000E104F104E9F0C7DFDC01CB01881999092A
:10019000AA09BB09883E9340A105B10578F321E087
:1001A000C21AD108E108F10888EE880E83E0981E93
:1001B000A11CB11CC114D104E104F10421F7DECF6C
:1001C000FF90EF90DF90CF90BF90AF909F908F9077
:1001D00008951F920F920FB60F9211242F933F9301
:1001E0008F939F93AF93BF93809161009091620032
:1001F000A0916300B09164003091600026E0230F6D
:100200002D3720F40296A11DB11D05C029E8230F4A
:100210000396A11DB11D209360008093610090930F
:100220006200A0936300B093640080916500909198
:100230006600A0916700B09168000196A11DB11DF4
:100240008093650090936600A0936700B093680068
:10025000BF91AF919F918F913F912F910F900FBEC2
:100260000F901F90189578948AB582608ABD8AB5E0
:1002700081608ABD83B7826083BF83B7816083BF9B
:1002800089B7826089BF80B7826080BF80B7816094
:1002900080BF329A319A3098379A8CB580648CBD81
:1002A00083E0E3DE84E0E1DE82E0DFDE80E0DDDECD
:1002B000C0E0D0E061E083E0F7DE6EE170E080E076
:1002C00090E04FDF60E083E0EFDE61E084E0ECDEB1
:1002D0006EE170E080E090E044DF60E084E0E4DE26
:1002E00061E082E0E1DE6EE170E080E090E039DF25
:1002F00060E082E0D9DE61E080E0D6DE6EE170E0B1
:1003000080E090E02EDF60E080E0CEDE64EC79E01B
:1003100080E090E026DF209769F272DECBCFF89480
:02032000FFCF0D
:00000001FF
